:100000000C9476000C9493000C9493000C94930041
:100010000C9493000C94CD000C9493000C949300DA
:100020000C9493000C9493000C9493000C94930004
:100030000C9493000C9493000C9493000C949300F4
:100040000C9449050C9493000C9493000C94930029
:100050000C9482040C9440040C9493000C94930030
:100060000C9493000C9493000C9493000C949300C4
:100070000C9493000C9493000C949300507265734D
:1000800073206120627574746F6E20746F207374B6
:1000900061727420616761696E0047414D45204F70
:1000A0005645520043535345323031302F373230AA
:1000B000312070726F6A656374206279203C796FB9
:1000C0007572206E616D6520686572653E004469D9
:1000D000616D6F6E64204D696E657273001B5B32DB
:1000E0004A001B5B25643B256448000011241FBEA9
:1000F000CFEFD8E0DEBFCDBF11E0A0E0B1E0EAEB8A
:10010000F1E102C005900D92AE3AB107D9F723E0B4
:10011000AEEAB1E001C01D92A83DB207E1F70E942E
:100120007C030C94DB080C940000E8E6F0E080818E
:10013000826080838BB382608BBBECE6F0E08081D1
:100140008F6080831092AE0108958091AE011816E1
:1001500014F58091AF016FB7F89491E009C0F901EF
:10016000E155FE4F4081F901E255FE4F40839F5F0C
:10017000292F30E04091AE01042E000C550B2417BE
:1001800035076CF39091AE0191509093AE016623C8
:100190001CF4789408958FEF08951F920F920FB674
:1001A0000F9211242F933F934F938F939F93EF932D
:1001B000FF9343B14F7080E026C09091AE01943020
:1001C0000CF5242F30E0082E02C0359527950A94AF
:1001D000E2F720FF17C02091B30130E0082E02C0E3
:1001E000359527950A94E2F720FD0CC0E091AE0109
:1001F00091E09E0F9093AE010E2E000CFF0BE15587
:10020000FE4F80838F5F8430C0F24093B301FF9133
:10021000EF919F918F914F913F912F910F900FBE32
:100220000F901F9018950E94D50208951F93CF93A9
:10023000DF93CDB7DEB728970FB6F894DEBF0FBEB9
:10024000CDBF0E94D50210E029C0E12FF0E0E25FAF
:10025000FE4F908190FF02C02FE001C020EF87E0A9
:1002600013C0992344F4E1E0F0E0EC0FFD1FE80F28
:10027000F11D208307C0E1E0F0E0EC0FFD1FE80F67
:10028000F11D1082990F81508111EBCF1982BE01AF
:100290006F5F7F4F812F0E94B8021F5F1031A8F25D
:1002A00028960FB6F894DEBF0FBECDBFDF91CF9179
:1002B0001F9108958031D8F46830C8F4413061F05E
:1002C000423061F09DEF940F923050F0453051F084
:1002D000463051F445E309C04FE007C041E005C096
:1002E0004FED03C040EF01C040E00E949902089525
:1002F0001092BB021092B90181E08093BD0210926E
:10030000BC028093BA0240E050E02CC0E7E0F0E08D
:10031000E21BF30BE295F295F07FFE27E07FFE27CC
:10032000E25DFE4FE40FF51F6081CA01880F991F3F
:10033000880F991F880F991FFC01E654FE4FE20FAA
:10034000F31F6083865C9D4FFC01E20FF31F108258
:100350002F5F3F4F02C020E030E028303105B4F27B
:100360004F5F5F4F40315105B4F30895803120F461
:10037000683020F080E0089580E0089581E00895DD
:10038000CF93DF93C82FD62F0E94B601882371F038
:10039000EC2FF0E0EE0FFF1FEE0FFF1FEE0FFF1F21
:1003A000E654FE4FED0FF11D808101C084E0DF9126
:1003B000CF910895CF93DF93D091BC02C091BD023D
:1003C0006D2F8C2F0E94B6018823C9F08091BA024C
:1003D000882351F06D2F8C2F0E94C001482F6D2F64
:1003E0008C2F0E945A0105C042E06D2F8C2F0E9475
:1003F0005A019091BA0281E0891B8093BA02DF9181
:10040000CF910895089580E00895EF92FF920F93A1
:100410001F93CF93DF93F82EE62EE82FF0E0EE0F38
:10042000FF1FEE0FFF1FEE0FFF1FE65CFD4FE60FF5
:10043000F11D81E080838F2D0E94C001C82F482FBD
:100440006E2D8F2D0E945A01CC2341F1C53071F5DC
:1004500028C0F801EE0FFF1FE25EFE4FC081CF0DF6
:10046000D181DE0D6D2F8C2F0E94B601882399F06B
:10047000EC2FF0E0EE0FFF1FEE0FFF1FEE0FFF1F40
:10048000E65CFD4FED0FF11D8081811104C06D2FE1
:100490008C2F0E9405020F5F1F4F05C000E010E087
:1004A00002C000E010E0083011059CF2DF91CF910E
:1004B0001F910F91FF90EF9008950F931F93CF938B
:1004C000DF930E94130100E010E00EC046E06C2FA5
:1004D000802F0E945A01219602C0C0E0D0E0C830AF
:1004E000D105A4F30F5F1F4F00311105B4F36091E4
:1004F000B9018091BB020E94050241E06091B901FF
:100500008091BB020E945A0142E06091BC0280913E
:10051000BD020E945A01DF91CF911F910F91089562
:100520000E9478010E945D02089580E80E94D5042F
:1005300008951F93CF93DF938031B0F46830A0F417
:10054000142FC62FD82F81E00E9401056C2F6770F1
:1005500080E1689F900111248D2F8F70822B0E9463
:100560000105812F0E940105DF91CF911F91089510
:100570000F931F93CF938031A0F48B01C82F83E09A
:100580000E9401058C2F8F700E940105C0E007C0FA
:10059000F801EC0FF11D80810E940105CF5FC8308A
:1005A000B8F3CF911F910F9108958FE00E9401053C
:1005B00008950E9495020E94950040E060E07BE46F
:1005C00080E090E00E94ED030E9421057894089558
:1005D0000E9418056AE070E08AE090E00E9407053A
:1005E0008EEC90E09F938F930E94ED056CE070E09D
:1005F0008AE090E00E94070584EA90E09F938F9341
:100600000E94ED050E9416010F900F900F900F9021
:100610000E943404882339F08091D2039091D3034F
:100620000E94AF0501C08FEF833731F0833521F091
:100630000E94A5008F3F61F308950E9418050E9453
:1006400090020E94A5000E943B0408958F929F9201
:10065000AF92BF92CF92DF92EF92FF920E94390544
:100660004B015C011BC00E94A500811104C060E029
:1006700081E00E9402020E9439056B017C01D501D4
:10068000C4018C509E4FAF4FBF4FC816D906EA0623
:10069000FB0620F00E94DA01460157010E94030286
:1006A000882309F3FF90EF90DF90CF90BF90AF9039
:1006B0009F908F9008956EE070E08AE090E00E9435
:1006C00007058AE990E09F938F930E94ED056FE004
:1006D00070E08AE090E00E9407058CE790E09F932D
:1006E0008F930E94ED050F900F900F900F900E9436
:1006F000A5008F3FE1F308950E94D9020E94E8020D
:100700000E941D030E9426030E945B03F9CFCF9332
:10071000C82F8A3019F48DE00E9487039FB7907824
:1007200002C0992329F18091BF028F3FD1F3F89441
:10073000E091BE0281E08E0F8093BE02F0E0E054B3
:10074000FD4FC0838091BF028F5F8093BF02809175
:10075000BE028F3F11F41092BE02E1ECF0E0808106
:1007600080628083992339F0789480E090E005C01E
:1007700081E090E002C080E090E0CF910895809108
:10078000D1038823E1F32FB72078F8948091BF0339
:100790003091D10390E0831B91095AF4E091BF039B
:1007A0008091D103F0E0E81BF109E053FC4F808118
:1007B0000AC0E091BF038091D103F0E0E81BF1098A
:1007C000E054FC4F80819091D10391509093D103DC
:1007D000222309F0789490E008951092BE021092BE
:1007E000BF021092BF031092D1031092D003409326
:1007F000B401DC01CB01880F991FAA1FBB1F880F12
:10080000991FAA1FBB1F9C01AD01220F331F441F5C
:10081000551F60E072E18AE790E00E946E05BA0120
:10082000A9014F5F5F4F6F4F7F4FDB01CA011AF481
:100830000196A11DB11DB595A7959795879501972F
:100840009093C5008093C400E1ECF0E088E18083E0
:10085000808180688083E2EDF3E080E091E0938323
:1008600082839183808308959091D10381E09111D7
:1008700001C080E008951092BF031092D103089543
:100880001F920F920FB60F9211242F938F939F9365
:10089000EF93FF938091BF02882329F18091BE02DC
:1008A0002091BF0290E0821B91095AF4E091BE02B0
:1008B0008091BF02F0E0E81BF109E154FC4F908108
:1008C0000AC0E091BE028091BF02F0E0E81BF1098E
:1008D000E054FD4F90818091BF0281508093BF0210
:1008E0009093C60005C0E1ECF0E080818F7D8083AD
:1008F000FF91EF919F918F912F910F900FBE0F90CD
:100900001F9018951F920F920FB60F9211242F93DC
:100910003F934F935F936F937F938F939F93AF9387
:10092000BF93CF93EF93FF93C091C6008091B40122
:10093000882349F08091BF028F3F29F060E070E08A
:100940008C2F0E9487038091D103803120F081E0B9
:100950008093D00318C0CD3009F4CAE0E091BF0302
:1009600081E08E0F8093BF03F0E0E054FC4FC08322
:100970008091D1038F5F8093D1038091BF03803139
:1009800011F41092BF03FF91EF91CF91BF91AF91FE
:100990009F918F917F916F915F914F913F912F9197
:1009A0000F900FBE0F901F90189594B1906B94B953
:1009B00095B1906195B990E59CBD883021F0803269
:1009C00011F0823019F491E09DBD01C01DBC803250
:1009D00069F028F4883071F0803161F00EC0803405
:1009E00029F0803851F48CB581608CBD8CB5826063
:1009F0008CBD03C08CB581608CBD85B18F7E85B9FF
:100A000008958EBD0DB407FEFDCF8EB508959F935A
:100A10008F937F936F9382EE90E09F938F930E94CA
:100A2000ED050F900F900F900F900F900F9008957D
:100A30008DED90E09F938F930E94ED050F900F90A6
:100A400008951092B5011092B6011092B70110925C
:100A5000B80116BC8CE787BD82E084BD83E085BD0C
:100A6000EEE6F0E080818260808385B3827085BB92
:100A700008958FB7282F2078F8946091B501709170
:100A8000B6018091B7019091B801222309F07894C2
:100A900008951F920F920FB60F9211248F939F9378
:100AA000AF93BF938091B5019091B601A091B7012A
:100AB000B091B8010196A11DB11D8093B50190932D
:100AC000B601A093B701B093B801BF91AF919F91C8
:100AD0008F910F900FBE0F901F901895052E97FBCA
:100AE0001EF400940E94850557FD07D00E948D05D5
:100AF00007FC03D04EF40C94850550954095309535
:100B000021953F4F4F4F5F4F089590958095709579
:100B100061957F4F8F4F9F4F0895A1E21A2EAA1B18
:100B2000BB1BFD010DC0AA1FBB1FEE1FFF1FA2179D
:100B3000B307E407F50720F0A21BB30BE40BF50B9A
:100B4000661F771F881F991F1A9469F76095709523
:100B5000809590959B01AC01BD01CF010895CF9385
:100B6000DF93EC012B8120FF33C026FF0AC02F7BCF
:100B70002B838E819F8101969F838E838A8190E053
:100B800029C022FF0FC0E881F9818081082E000C66
:100B9000990B009719F420622B831AC03196F983C0
:100BA000E8830EC0EA85FB85099597FF09C02B8174
:100BB000019611F080E201C080E1822B8B8308C096
:100BC0002E813F812F5F3F4F3F832E83992702C0A5
:100BD0008FEF9FEFDF91CF910895A0E0B0E0E3EFBA
:100BE000F5E00C94B208AE01495F5F4FDA016D91F8
:100BF0007D91AD0102ED13E0F80182819381DC016A
:100C000013962C911397286013962C930E94130629
:100C1000D8011296ED91FC9113972381277F2383AE
:100C2000E4E00C94CE08ABE0B0E0E9E1F6E00C942F
:100C3000A4086C017B018A01FC0117821682838162
:100C400081FFCCC1CE0101963C01F6019381F701F1
:100C500093FD859193FF81917F01882309F4BAC1A7
:100C6000853239F493FD859193FF81917F0185321F
:100C700029F4B60190E00E940A08E7CF912C212CBC
:100C8000312CFFE1F315D8F08B3279F038F4803253
:100C900079F08332A1F4232D20611DC08D3261F0E3
:100CA000803369F4232D216016C0832D8260382E95
:100CB000E32DE4603E2E2AC0F32DF8601DC037FC02
:100CC0002DC020ED280F2A3040F08E32B9F436FCCA
:100CD00081C1232D2064322E19C036FE06C08AE061
:100CE000989E200D1124922E11C0EAE02E9E200D18
:100CF0001124222EF32DF0623F2E08C08C3621F4F1
:100D0000832D8068382E02C0883641F4F70193FDA8
:100D1000859193FF81917F018111B3CF982F9F7DA2
:100D20009554933028F40C5F1F4F9FE399830DC0B7
:100D3000833631F0833771F0833509F059C021C013
:100D4000F801808189830E5F1F4F88248394912C42
:100D5000530113C02801F2E04F0E511CF801A0808E
:100D6000B18036FE03C0692D70E002C06FEF7FEFE7
:100D7000C5010E94FF074C018201F32DFF773F2E32
:100D800016C0280122E0420E511CF801A080B1805B
:100D900036FE03C0692D70E002C06FEF7FEFC50122
:100DA0000E94F4074C01F32DF0683F2E820133FCC2
:100DB0001BC0822D90E088169906B0F4B60180E23F
:100DC00090E00E940A082A94F4CFF50137FC85913F
:100DD00037FE81915F01B60190E00E940A08211060
:100DE0002A9421E0821A91088114910471F7E8C0D5
:100DF000843611F0893641F5F80137FE07C060816D
:100E00007181828193810C5F1F4F08C06081718165
:100E1000072E000C880B990B0E5F1F4FF32DFF76EA
:100E20003F2E97FF09C090958095709561957F4FF3
:100E30008F4F9F4FF0683F2E2AE030E0A3010E94C1
:100E40004608882E861845C0853731F4232D2F7E1D
:100E5000B22E2AE030E025C0932D997FB92E8F362F
:100E6000C1F018F4883579F0B5C0803719F08837AB
:100E700021F0B0C0E92FE061BE2EB4FE0DC0FB2D05
:100E8000F460BF2E09C034FE0AC0292F2660B22E9E
:100E900006C028E030E005C020E130E002C020E1DB
:100EA00032E0F801B7FE07C06081718182819381D1
:100EB0000C5F1F4F06C06081718180E090E00E5F83
:100EC0001F4FA3010E944608882E8618FB2DFF772E
:100ED0003F2E36FE0DC0232D2E7FA22E891458F4EE
:100EE00034FE0BC032FC09C0832D8E7EA82E05C0B7
:100EF000B82CA32C03C0B82C01C0B92CA4FE0FC081
:100F0000FE01E80DF11D8081803321F49A2D997E38
:100F1000A92E09C0A2FE06C0B394B39404C08A2DC2
:100F2000867809F0B394A3FC11C0A0FE06C0B214E9
:100F300088F4280C922C9B180EC0B21460F4B601F1
:100F400080E290E00E940A08B394F7CFB21418F43C
:100F50002B1802C0982C212CA4FE10C0B60180E3EF
:100F600090E00E940A08A2FE17C0A1FC03C088E717
:100F700090E002C088E590E0B6010CC08A2D86782A
:100F800059F0A1FE02C08BE201C080E2A7FC8DE215
:100F9000B60190E00E940A08891438F4B60180E393
:100FA00090E00E940A089A94F7CF8A94F301E80D22
:100FB000F11D8081B60190E00E940A088110F5CFF2
:100FC000222009F442CEB60180E290E00E940A0895
:100FD0002A94F6CFF6018681978102C08FEF9FEFAA
:100FE0002B96E2E10C94C008FC0105906150704022
:100FF0000110D8F7809590958E0F9F1F0895FC01E2
:101000006150704001900110D8F7809590958E0F37
:101010009F1F08950F931F93CF93DF93FB012381AD
:1010200021FD03C08FEF9FEF2CC022FF16C0468129
:101030005781248135814217530744F4A081B1813F
:101040009D012F5F3F4F318320838C932681378111
:101050002F5F3F4F3783268314C08B01EC01FB01C8
:101060000084F185E02D0995892BE1F6D8011696CB
:101070008D919C911797019617969C938E93169736
:10108000CE01DF91CF911F910F910895FA01AA2708
:10109000283051F1203181F1E8946F936E7F6E5FBB
:1010A0007F4F8F4F9F4FAF4FB1E03ED0B4E03CD069
:1010B000670F781F891F9A1FA11D680F791F8A1F4C
:1010C000911DA11D6A0F711D811D911DA11D20D0B3
:1010D00009F468943F912AE0269F11243019305D6D
:1010E0003193DEF6CF010895462F4770405D41935E
:1010F000B3E00FD0C9F7F6CF462F4F70405D4A33AB
:1011000018F0495D31FD4052419302D0A9F7EACF72
:10111000B4E0A6959795879577956795BA95C9F7A1
:1011200000976105710508959B01AC010A2E069494
:101130005795479537952795BA95C9F7620F731F4D
:10114000841F951FA01D08952F923F924F925F928A
:101150006F927F928F929F92AF92BF92CF92DF92C7
:10116000EF92FF920F931F93CF93DF93CDB7DEB72C
:10117000CA1BDB0B0FB6F894DEBF0FBECDBF0994C0
:101180002A88398848885F846E847D848C849B8417
:10119000AA84B984C884DF80EE80FD800C811B8125
:1011A000AA81B981CE0FD11D0FB6F894DEBF0FBE54
:0A11B000CDBFED010895F894FFCFC4
:1011BA0000000003000000008703BF0300007D4514
:1011CA0045390010387C3810007D2111217D00013D
:1011DA0000FF0100FF000000000000000000000303
:1011EA0000030000000404000004000400040004DA
:1011FA0000040000000304040304000300040004C4
:10120A0000040404040003000000000400040504B0
:10121A0000040000030000040000000400000404AD
:10122A000304050004000004030400000404000091
:10123A000004040404000400000004030004000085
:10124A000003000003000300030003000004000081
:0E125A0000040000030004000003030005046C
:00000001FF
